:020000040800F2
:10000000000003203D0600088D0600088D0600084C
:100010008D0600088D0600088D060008000000000F
:100020000000000000000000000000008D06000835
:100030008D060008000000008D0600088D060008EF
:100040008D0600088D0600088D0600088D06000844
:100050008D0600088D0600088D0600088D06000834
:100060008D0600088D0600088D0600088D06000824
:100070008D0600088D0600088D0600088D06000814
:100080008D0600088D0600088D0600088D06000804
:100090008D0600088D0600088D0600088D060008F4
:1000A0008D0600088D0600088D0600088D060008E4
:1000B0008D0600088D0600088D0600088D060008D4
:1000C0008D0600088D0600088D0600088D060008C4
:1000D0008D0600088D0600088D0600088D060008B4
:1000E0008D0600088D0600088D0600088D060008A4
:1000F0008D0600088D0600088D0600088D06000894
:100100008D0600088D0600088D0600088D06000883
:100110008D0600088D0600088D0600088D06000873
:100120008D0600088D0600088D0600088D06000863
:100130008D0600088D0600088D0600088D06000853
:100140008D0600088D0600088D0600088D06000843
:100150008D0600088D0600088D0600088D06000833
:100160008D0600088D0600088D0600088D06000823
:100170008D0600088D0600088D06000800000000AE
:100180008D0600088D0600088D0600088D06000803
:100190008D0600088D0600088D0600088D060008F3
:0C01A0008D0600088D0600088D06000882
:1001AC0010B5054C237833B9044B13B10448AFF3A5
:1001BC0000800123237010BD00000020000000000F
:1001CC00D806000808B5034B1BB103490348AFF32D
:1001DC00008008BD0000000004000020D8060008C4
:1001EC00034AD2F8883043F47003C2F88830704761
:1001FC0000ED00E010B500F0ADF800F0B3F801240C
:10020C007AE000F00BFA474A136801331360042CB0
:10021C0002D80134E4B275E0012400F0CDF8424B71
:10022C001B6913F0010F1BD0052C19D0022C17D011
:10023C0001223E4B1A703E49D1F818341343C1F8D1
:10024C0018343C4B1A7017E000F034F9E7E700F073
:10025C006BF9E4E700F0A4F9E1E700F0E1F8DEE780
:10026C000022324B1A703249D1F8183443F48033DF
:10027C00C1F818342F4B1A702F4B1B6913F0800FD9
:10028C0010D0052C0ED0032C0CD001222B4B1A7045
:10029C002749D1F8183443F08003C1F81834284B9F
:1002AC001A700BE00022254B1A702149D1F8183432
:1002BC0043F40003C1F81834214B1A70214B1B690D
:1002CC0013F4807F0ED0052C0CD0042C0AD0012204
:1002DC001D4B1A701D498B6943F480438B611C4B79
:1002EC001A7009E00022184B1A7018498B6943F0F8
:1002FC0080438B61164B1A70124B1B6913F4005F11
:10030C003FF47FAF631E042B89D801A252F823F06F
:10031C0027020008550200085B0200086102000871
:10032C006702000820000020001002402600002078
:10033C00000002401E000020000C0240250000209E
:10034C001D00002000080240240000200004024090
:10035C001C000020024A136B43F01E03136370470A
:10036C0000380240134BD3F8001441F00101C3F8DC
:10037C000014D3F8082442F00102C3F8082441F415
:10038C008041C3F8001442F48042C3F8082403F5FA
:10039C0080631A6842F080521A605A6822F48042D4
:1003AC005A609A6842F080529A60DA6822F0805261
:1003BC00DA60704700000240134A936943F48033BB
:1003CC009361002313609360104A1370104AD2F8A3
:1003DC00181C41F40001C2F8181CC2F8003CC2F809
:1003EC00083C0C4A13700C4A916941F08071916180
:1003FC00116821F480311160916821F48031916091
:10040C00064A1370704700BF0010024029000020FC
:10041C0000000240280000200008024027000020B5
:10042C001E4B1A6842F001021A609A6842F00102EF
:10043C009A609A6942F001029A610122184B1A7073
:10044C00184BD3F8001C41F48041C3F8001CD3F8BE
:10045C00081C41F48041C3F8081CD3F8181C41F067
:10046C008001C3F8181C104B1A70104B196841F41A
:10047C0080311960596821F480715960996841F490
:10048C0080319960D96821F48031D960996941F43F
:10049C0080719961064B1A70704700BF00100240C2
:1004AC002900002000000240280000200008024023
:1004BC0027000020164B1A6842F001021A609A6855
:1004CC0042F001029A609A6942F001029A61114B62
:1004DC0001221A70104BD3F8182C42F40002C3F806
:1004EC00182C0022C3F8002CC3F8082C0B4B1A70E4
:1004FC000B4B996941F080719961196821F4803135
:10050C001960996821F480319960064B1A70704714
:10051C0000100240290000200000024028000020AA
:10052C000008024027000020174B9A6942F48032E1
:10053C009A6100221A609A60144B1A70144BD3F80B
:10054C00001C41F48041C3F8001CD3F8081C41F492
:10055C008041C3F8081CD3F8181C41F08001C3F883
:10056C00181C0C4B012119700B4B996941F08071CF
:10057C009961196821F480311960996821F48031EE
:10058C009960064B1A707047001002402900002039
:10059C000000024028000020000802402700002034
:1005AC00194A936943F48033936100231360936079
:1005BC00164A1370164AD2F8181C41F40001C2F8FE
:1005CC00181CC2F8003CC2F8083C124A137003F124
:1005DC00804303F502331A6842F480321A605A6879
:1005EC0022F480725A609A6842F480329A60DA6817
:1005FC0022F48032DA609A6942F480729A61064B76
:10060C0001221A70704700BF001002402900002020
:10061C00000002402800002027000020002300E0FA
:10062C000133024A9342FBDD704700BF20A1070053
:10063C00DFF834D00D480E490E4A002302E0D4589E
:10064C00C4500433C4188C42F9D30B4A0B4C00230E
:10065C0001E013600432A242FBD3FFF7C1FD00F0AE
:10066C0011F8FFF7C7FD70470000032000000020C1
:10067C0000000020F8060008000000202C000020DC
:10068C00FEE7000070B50D4D0D4C641BA410002648
:10069C00A64209D10B4D0C4C00F018F8641BA410A9
:1006AC000026A64205D170BD55F8043B984701368B
:1006BC00EEE755F8043B98470136F2E7F0060008E0
:1006CC00F0060008F0060008F4060008F8B500BFB4
:1006DC00F8BC08BC9E467047F8B500BFF8BC08BC17
:0406EC009E4670476F
:0406F000D10100082C
:0406F400AD0100084C
:040000050800063DAC
:00000001FF
