:020000040800F2
:1000000000000220050500085505000855050008F8
:1000100055050008550500085505000800000000BA
:10002000000000000000000000000000550500086E
:10003000550500080000000055050008550500089A
:100040005505000855050008550500085505000828
:100050005505000855050008550500085505000818
:100060005505000855050008550500085505000808
:1000700055050008550500085505000855050008F8
:10008000550500085505000855050008000000004A
:1000900000000000000000000000000055050008FE
:1000A00055050008550500085505000855050008C8
:1000B00055050008550500085505000855050008B8
:1000C00055050008550500085505000855050008A8
:1000D00055050008550500085505000800000000FA
:1000E00055050008550500085505000800000000EA
:1000F000000000000000000000000000550500089E
:1001000000000000550500085505000855050008C9
:1001100000000000000000000000000000000000DF
:100120005505000855050008550500085505000847
:10013000550500080000000000000000000000005D
:10014000000000000000000000000000550500084D
:100150005505000855050008550500085505000817
:1001600055050008550500080000000000000000CB
:10017000000000000000000000000000000000007F
:10018000000000005505000800000000000000000D
:080190005505000855050008A3
:1001980010B5054C237833B9044B13B10448AFF3B9
:1001A80000800123237010BD000000200000000023
:1001B800A005000808B5034B1BB103490348AFF37A
:1001C800008008BD0000000004000020A005000811
:1001D800034AD2F8883043F47003C2F88830704775
:1001E80000ED00E010B500F07BF800F081F8012484
:1001F80059E000F079F9042C02D80134E4B257E050
:10020800012400F09FF8324B1B6913F4005F17D1EB
:10021800052C15D0022C13D02E4AD2F8183443F0EE
:100228000103C2F8183412E000F0F0F8EBE700F030
:100238000FF9E8E700F032F9E5E700F0ADF8E2E79A
:10024800244AD2F8183443F48033C2F81834224BC5
:100258001B6913F0800F0BD0052C09D0032C07D095
:100268001C4AD2F8183443F08003C2F8183406E068
:10027800184AD2F8183443F40003C2F81834144B5F
:100288001B6913F4807F09D0052C07D0042C05D0F6
:10029800124A936943F48043936104E00F4A9369D7
:1002A80043F0804393610A4B1B6913F4005FA0D1AC
:1002B800631E042BA7D801A252F823F00B020008F2
:1002C80031020008370200083D0200084302000816
:1002D8000008024000000240000C024000040240F6
:1002E800024A136B43F01E03136370470038024041
:1002F800134BD3F8001441F00101C3F80014D3F8EC
:10030800082442F00102C3F8082441F48041C3F8EC
:10031800001442F48042C3F8082403F580631A6885
:1003280042F080521A605A6822F480425A609A68F1
:1003380042F080529A60DA6822F08052DA607047A0
:1003480000000240104B0021196099600F4AD2F852
:10035800183403F00103C2F81834C2F8001CC2F8BC
:10036800081C43F40003C2F81834094B1A6822F435
:1003780080321A609A6822F480329A60054A93693A
:1003880043F0804393617047001002400000024030
:1003980000080240000402401B4B1A6842F00102A8
:1003A8001A609A6842F001029A609A6942F0010262
:1003B8009A61A3F58053D3F8002C42F48042C3F825
:1003C800002CD3F8082C42F48042C3F8082CD3F848
:1003D800182C42F08002C3F8182C03F500631A6841
:1003E80042F480321A605A6822F480725A609A681D
:1003F80042F480329A60DA6822F48032DA609A69CC
:1004080042F480729A617047001002400F4B1A68DC
:1004180042F001021A609A6842F001029A609A69F1
:1004280042F001029A61A3F580530022C3F8002C20
:10043800C3F8082C03F500631A6822F480321A60A6
:100448009A6822F480329A60704700BF0010024018
:10045800114B00221A609A60A3F58053D3F8002C40
:1004680042F48042C3F8002CD3F8082C42F48042AE
:10047800C3F8082CD3F8182C42F08002C3F8182CC3
:1004880003F500631A6822F480321A609A6822F42D
:1004980080329A60704700BF00100240114A002362
:1004A80013609360A2F58052C2F8003CC2F8083C81
:1004B80003F1804303F502331A6842F480321A606C
:1004C8005A6822F480725A609A6842F480329A60BC
:1004D800DA6822F48032DA609A6942F480729A61AA
:1004E800704700BF00100240002300E00133024AB9
:1004F8009342FBDD704700BFA0BB0D00DFF834D08E
:100508000D480E490E4A002302E0D458C450043363
:10051800C4188C42F9D30B4A0B4C002301E013603A
:100528000432A242FBD3FFF753FE00F011F8FFF7A5
:1005380059FE704700000220000000200000002043
:10054800C0050008000000201C000020FEE7000095
:1005580070B50D4D0D4C641BA4100026A64209D1A0
:100568000B4D0C4C00F018F8641BA4100026A64292
:1005780005D170BD55F8043B98470136EEE755F8AC
:10058800043B98470136F2E7B8050008B8050008AB
:10059800B8050008BC050008F8B500BFF8BC08BCE1
:1005A8009E467047F8B500BFF8BC08BC9E46704729
:0405B800BD01000879
:0405BC009901000899
:0400000508000505E5
:00000001FF
