:020000040800F2
:1000000000000220F1030008410400084104000838
:1000100041040008410400084104000800000000F9
:100020000000000000000000000000004104000883
:1000300041040008000000004104000841040008D9
:10004000410400084104000841040008410400087C
:10005000410400084104000841040008410400086C
:10006000410400084104000841040008410400085C
:10007000410400084104000841040008410400084C
:100080004104000841040008410400080000000089
:100090000000000000000000000000004104000813
:1000A000410400084104000841040008410400081C
:1000B000410400084104000841040008410400080C
:1000C00041040008410400084104000841040008FC
:1000D0004104000841040008410400080000000039
:1000E0004104000841040008410400080000000029
:1000F00000000000000000000000000041040008B3
:100100000000000041040008410400084104000808
:1001100000000000000000000000000000000000DF
:10012000410400084104000841040008410400089B
:100130004104000800000000000000000000000072
:100140000000000000000000000000004104000862
:10015000410400084104000841040008410400086B
:1001600041040008410400080000000000000000F5
:10017000000000000000000000000000000000007F
:100180000000000041040008000000000000000022
:080190004104000841040008CD
:1001980010B5054C237833B9044B13B10448AFF3B9
:1001A80000800123237010BD000000200000000023
:1001B8008C04000808B5034B1BB103490348AFF38F
:1001C800008008BD00000000040000208C04000826
:1001D800034AD2F8883043F47003C2F88830704775
:1001E80000ED00E000B583B000210AE002AA02EBAE
:1001F80041021A44002002F8080C0133012BF5DDF6
:100208000131022901DC0023F8E700F009F800F0C9
:100218000FF8684600F044F8684600F0A9F8F8E7D7
:10022800024A136B43F00703136370470038024018
:100238001A4B1A6842F480721A605A6822F0100247
:100248005A609A6842F480729A60DA6822F480727E
:10025800DA6003F580631A6842F001021A605A688E
:1002680022F001025A609A6842F001029A60DA6844
:1002780022F00102DA6003F580631A6842F0040292
:100288001A605A6822F002025A609A6842F0040220
:100298009A60DA6822F00402DA60704700000240CF
:1002A8001D4B1B6913F4807F07D01C4B1B7810F87B
:1002B8001320DAB9012200F81320174B1B6913F039
:1002C800400F07D0154B1B7800EB430043788BB9E0
:1002D80001234370104B1B6913F0200F17D00F4BED
:1002E8001B787BB90D4B01221A707047002200F869
:1002F8001320E2E7012B02D000234370EAE7022330
:100308004370E7E7012B03D0044B00221A707047B3
:10031800024B02221A707047000802401C0000209D
:1003280038B50D4660B1012814D0002418E02846DD
:10033800FFF7B6FF013447F22F539C42F7DD38BD73
:100348000024F8E72846FFF7ABFF0134064B9C4230
:10035800F8DDF4E70024F9E72846FFF7A1FF0134A8
:10036800024B9C42F8DDEAE7BF2709009FBB0D005E
:1003780038B504460378012B06D0A378012B11D099
:100388002379012B1CD038BD144DAB6943F0100301
:10039800AB6101464078FFF7C3FFAB6943F48013B4
:1003A800AB61EAE70E4DAB6943F00103AB6121464F
:1003B800E078FFF7B5FFAB6943F48033AB61DFE763
:1003C800084DAB6943F00203AB6121466079FFF742
:1003D800A7FFAB6943F40033AB61D4E700000240E8
:1003E8000004024000080240DFF834D00D480E49EE
:1003F8000E4A002302E0D458C4500433C4188C4277
:10040800F9D30B4A0B4C002301E013600432A242DB
:10041800FBD3FFF7DDFE00F011F8FFF7E3FE7047AE
:10042800000002200000002000000020AC040008AA
:100438000000002020000020FEE7000070B50D4DF0
:100448000D4C641BA4100026A64209D10B4D0C4C80
:1004580000F018F8641BA4100026A64205D170BD50
:1004680055F8043B98470136EEE755F8043B9847A2
:100478000136F2E7A4040008A4040008A404000854
:10048800A8040008F8B500BFF8BC08BC9E46704731
:0C049800F8B500BFF8BC08BC9E467047D9
:0404A400BD0100088E
:0404A80099010008AE
:04000005080003F1FB
:00000001FF
