:020000040800F2
:100000000000022089080008D9080008D908000863
:10001000D9080008D9080008D90800080000000025
:10002000000000000000000000000000D9080008E7
:10003000D908000800000000D9080008E9070008F6
:10004000D9080008D9080008D9080008D90800080C
:10005000D9080008D9080008D9080008D9080008FC
:10006000D9080008D9080008D9080008D9080008EC
:10007000D9080008D9080008D9080008D9080008DC
:10008000D9080008D9080008D908000800000000B5
:10009000000000000000000000000000D908000877
:1000A000D9080008D9080008D9080008D9080008AC
:1000B000D9080008D9080008D9080008D90800089C
:1000C000D9080008D9080008D9080008D90800088C
:1000D000D9080008D9080008D90800080000000065
:1000E00011080008D9080008D9080008000000001D
:1000F000000000000000000000000000D908000817
:1001000000000000D9080008D9080008D908000834
:1001100000000000000000000000000000000000DF
:10012000D9080008D9080008D9080008D90800082B
:10013000D9080008000000000000000000000000D6
:10014000000000000000000000000000D9080008C6
:10015000D9080008D9080008D9080008D9080008FB
:10016000D9080008D90800080000000000000000BD
:10017000000000000000000000000000000000007F
:1001800000000000D9080008000000000000000086
:08019000D9080008D908000895
:1001980010B5054C237833B9044B13B10448AFF3B9
:1001A80000800123237010BD04000020000000001F
:1001B8002409000808B5034B1BB103490348AFF3F2
:1001C800008008BD00000000080000202409000885
:1001D800034AD2F8883043F47003C2F88830704775
:1001E80000ED00E000B587B000F0CAF800F05CF858
:1001F80000F040F900F072F900210DE003EB410234
:1002080006A800EB4202002022F8180C01339BB22A
:10021800012BF3D9013189B2052905D80023F7E765
:10022800012B11D0022B16D000F0BCFA684600F062
:1002380017FA0C4B1B78002BF2D1684600F072F9C4
:10024800084B08221A70EFE7684600F079F9054B69
:1002580008221A70E8E7684600F08EF9014B082278
:100268001A70E1E70000002000B500F00700C0F1B7
:10027800070CBCF1040F28BF4FF0040C031D062B1C
:100288000FD9C31E4FF0FF3E0EFA0CF021EA000111
:1002980099400EFA03FE22EA0E0241EA02005DF8D6
:1002A80004FB0023EEE70000334A136823F0F80349
:1002B80043F080031360002393602F4B9B6813F077
:1002C8000C0FFAD12C4A136823F0807313602A4B61
:1002D8001B6813F0007FFAD1274A136823F4102310
:1002E8001360254B1B6813F4003FFAD1224B1A68A0
:1002F80022F480221A601A6842F001021A601E4B2A
:100308001B6813F0020FFAD01B4B00225A605A6880
:100318005A605A6842F008025A605A6842F4C05259
:100328005A605A6822F480325A605A6842F08062F1
:100338005A609A6842F002029A609A689A609A68CB
:1003480042F480529A609A689A609A6822F0404211
:100358009A609A6842F040529A6008490A6842F0E6
:1003680003020A601A6842F080721A60024B1B6826
:1003780013F0007FFAD0704700380240003C02407A
:10038800394A136B43F006031363384B1A6842F07B
:1003980001021A605A6822F001025A609A6842F013
:1003A80001029A60DA6822F00102DA601A6842F003
:1003B80004021A605A6822F002025A609A6842F0EF
:1003C80004029A60DA6822F00402DA60284A1168A6
:1003D80041F001011160516821F0010151609168FB
:1003E80041F001019160D16821F00101D1601A68E2
:1003F80042F480621A605A6822F020025A609A68B1
:1004080042F480629A60DA6822F48062DA601A68DC
:1004180042F480521A605A6822F040025A609A6880
:1004280042F480529A60DA6822F48052DA601A68DC
:1004380042F480321A605A6822F480725A609A68CC
:1004480042F480329A60DA6822F48032DA601A68FC
:1004580042F400221A609A6842F440229A605A6A6A
:1004680022F0F0025A627047003802400008024049
:100478000004024008B5154A536C43F480435364A2
:10048800A2F58032536923F0F00343F0200353614F
:100498000F4B1A6842F400521A609A6842F40052EC
:1004A8009A60DA6842F40052DA600A4BD86800228F
:1004B8001146C0F30220FFF7D7FE0001C0B2064B79
:1004C80083F828034FF480725A6008BD0038024050
:1004D800003C014000ED00E000E100E04FF0E023C7
:1004E8001A6922F001021A611A6942F002021A61BD
:1004F8001A6942F004021A615A6902F07F4242F412
:10050800BB3242F0FF025A619A6902F07F4242F41C
:10051800BB3242F0FF029A611A6942F001021A6185
:1005280070470000054A138801339BB21380072BDC
:1005380000D07047134600221A80FAE70200002014
:100548000C4B1B88062B05D000EB830230F82330B8
:10055800012B00D07047538813B90123538070478B
:10056800012B04D0022BF5D100235380F2E702239C
:100578005380704702000020084B1B88062B08D0C8
:1005880030F823201AB9012220F823207047012AC5
:1005980000D07047002220F82320FAE7020000204C
:1005A800052827D8DFE800F003090F151B21124A98
:1005B800936943F00103936170470F4A936943F0CD
:1005C8000203936170470D4A936943F001039361F5
:1005D8007047094A936943F0200393617047064ABC
:1005E800936943F0400393617047034A936943F466
:1005F80080739361704700BF000802400004024006
:10060800052827D8DFE800F003090F151B21124A37
:10061800936943F48033936170470F4A936943F4B5
:100628000033936170470D4A936943F480339361B3
:100638007047094A936943F4001393617047064A67
:10064800936943F4800393617047034A936943F0C5
:1006580080739361704700BF0008024000040240A5
:1006680038B50546494B1B88062B0CD0002414E0EE
:10067800474B00221A702046FFF7C2FF0134A4B28C
:10068800052CF5D9F2E70024FAE7414B01221A704C
:100698002046FFF785FF0134A4B23C4B1B88A342D8
:1006A80072D3062B70D005EB840235F82430002B6A
:1006B800EBD053880BBB374B1B88374A12889B1AE1
:1006C80040F6C312934206DC314B01221A702046D1
:1006D800FFF766FFDFE72E4B00221A702046FFF770
:1006E8008FFF2C4B1A882C4B1B88D31A41F2883168
:1006F8008B42D0DD284B1A80CDE7012B11D0022B7D
:10070800C9D1244B1B88254A12889B1A40F20D2216
:10071800934227DC1E4B01221A702046FFF740FF48
:10072800B9E71C4B1B881E4A12889B1AB3F5637FD6
:1007380006DC174B01221A702046FFF731FFAAE7A3
:10074800134B00221A702046FFF75AFF114B1A88E4
:10075800134B1B88D31A40F21A718B429BDD104B46
:100768001A8098E70A4B00221A702046FFF748FFC4
:10077800084B1A88094B1B88D31A40F21C418B423C
:1007880089DD064B1A8086E738BD00BF02000020CD
:100798002200002020000020280000202400002043
:1007A800260000200A4B1A880A4B1B889A4207D851
:1007B800094A1288934203D3084A1288934205D201
:1007C800034A1380044A1380044A1380704700BF09
:1007D80028000020200000202600002024000020FF
:1007E800064A138801331380054A1388013313809E
:1007F800044A138801331380704700BF2A00002081
:100808002E00002020000020184A536943F40053AA
:100818005361174B1B88312B27D9154B00221A809F
:10082800144B1B7833B9134B01221A70124B002258
:100838001A8070470F4B00221A700F4B1B88B3F5B4
:10084800FA6F02D20D4B1A707047A3F5FA6292B292
:10085800B2F5FA6F03D2094B01221A707047B3F54B
:100868007A6F02D3054B02221A707047003C014090
:100878002A0000202C0000202E000020000000206C
:10088800DFF834D00D480E490E4A002302E0D45850
:10089800C4500433C4188C42F9D30B4A0B4C0023C0
:1008A80001E013600432A242FBD3FFF791FC00F091
:1008B80011F8FFF797FC70470000022000000020A5
:1008C8000400002044090008040000203000002033
:1008D800FEE7000070B50D4D0D4C641BA4100026FA
:1008E800A64209D10B4D0C4C00F018F8641BA4105B
:1008F8000026A64205D170BD55F8043B984701363D
:10090800EEE755F8043B98470136F2E73C09000842
:100918003C0900083C09000840090008F8B500BF78
:10092800F8BC08BC9E467047F8B500BFF8BC08BCC8
:040938009E46704720
:04093C00BD010008F1
:040940009901000811
:0409440008000600A1
:04000005080008895E
:00000001FF
