:020000040800F2
:10000000000002208D040008DD040008DD04000863
:10001000DD040008DD040008DD0400080000000025
:10002000000000000000000000000000DD040008E7
:10003000DD04000800000000DD040008DD04000805
:10004000DD040008DD040008DD040008DD0400080C
:10005000DD040008DD040008DD040008DD040008FC
:10006000DD040008DD040008DD040008DD040008EC
:10007000DD040008DD040008DD040008DD040008DC
:10008000DD040008DD040008DD04000800000000B5
:10009000000000000000000000000000DD04000877
:1000A000DD040008DD040008DD040008DD040008AC
:1000B000DD040008DD040008DD040008DD0400089C
:1000C000DD040008DD040008DD040008DD0400088C
:1000D000DD040008DD040008DD0400080000000065
:1000E000DD040008DD040008DD0400080000000055
:1000F000000000000000000000000000DD04000817
:1001000000000000DD040008DD040008DD04000834
:1001100000000000000000000000000000000000DF
:10012000DD040008DD040008DD040008DD0400082B
:10013000DD040008000000000000000000000000D6
:10014000000000000000000000000000DD040008C6
:10015000DD040008DD040008DD040008DD040008FB
:10016000DD040008DD0400080000000000000000BD
:10017000000000000000000000000000000000007F
:1001800000000000DD040008000000000000000086
:08019000DD040008DD04000895
:1001980010B5054C237833B9044B13B10448AFF3B9
:1001A80000800123237010BD000000200000000023
:1001B8002805000808B5034B1BB103490348AFF3F2
:1001C800008008BD00000000040000202805000889
:1001D800034AD2F8883043F47003C2F88830704775
:1001E80000ED00E000B583B000210AE002AA02EBAE
:1001F80041021A44002002F8080C0133012BF5DDF6
:100208000131022901DC0023F8E700F009F800F0C9
:100218000FF8684600F044F8684600F0D9F8F8E7A7
:10022800024A136B43F00703136370470038024018
:100238001A4B1A6842F480721A605A6822F0100247
:100248005A609A6842F480729A60DA6822F480727E
:10025800DA6003F580631A6842F001021A605A688E
:1002680022F001025A609A6842F001029A60DA6844
:1002780022F00102DA6003F580631A6842F0040292
:100288001A605A6822F002025A609A6842F0040220
:100298009A60DA6822F00402DA60704700000240CF
:1002A80010B4324B1B6913F4807F20D10023194608
:1002B8002E4A126912F0400F23D12C4A126912F00B
:1002C800200F3AD15DF8044B7047013341F100012A
:1002D800274A9A424FF000028A41F6D2254A1278FC
:1002E80010F8124034B9012400F81240E0E7002366
:1002F8001946EDE7002400F81240D9E7013341F12F
:1003080000011D4A9A424FF000028A41F6D2194A6A
:10031800127800EB4200427812B901224270CCE711
:10032800012A04D0022AC8D100224270C5E702225D
:100338004270C2E7013341F100010F4A9A424FF07F
:1003480000028A41F6D20B4B1B781BB9094B0122DC
:100358001A70B7E7012B05D0022BB3D1054B002249
:100368001A70AFE7034B02221A70ABE7000802408D
:100378007F1A06001C0000201FA1070038B50D4693
:1003880058B1012813D0002417E02846FFF788FF4A
:1003980001340C4B9C42F8DD38BD0024F9E72846AF
:1003A800FFF77EFF0134084B9C42F8DDF4E7002498
:1003B800F9E72846FFF774FF0134044B9C42F8DD47
:1003C800EAE700BF9F8601005FAE0A007F841E0037
:1003D80038B504460378012B06D0A378012B1BD02F
:1003E8002379012B30D038BD234DAB6943F010037E
:1003F800AB6101464078FFF7C1FFAB6943F4801356
:10040800AB61A378002BE8D12379002BE5D12146F5
:100418006078FFF7B3FFE0E7184DAB6943F00103DD
:10042800AB612146E078FFF7A9FFAB6943F480335D
:10043800AB612378002BD3D12379002BD0D121466F
:10044800E078FFF79BFFCBE70D4DAB6943F0020364
:10045800AB6121466079FFF791FFAB6943F4003344
:10046800AB61A378002BBED12378002BBBD12146EA
:100478006079FFF783FFB6E70000024000040240FE
:1004880000080240DFF834D00D480E490E4A002318
:1004980002E0D458C4500433C4188C42F9D30B4A30
:1004A8000B4C002301E013600432A242FBD3FFF798
:1004B8008FFE00F011F8FFF795FE7047000002204C
:1004C800000000200000002048050008000000206F
:1004D80020000020FEE7000070B50D4D0D4C641B98
:1004E800A4100026A64209D10B4D0C4C00F018F8B8
:1004F800641BA4100026A64205D170BD55F8043B24
:1005080098470136EEE755F8043B98470136F2E77D
:10051800400500084005000840050008440500089B
:10052800F8B500BFF8BC08BC9E467047F8B500BFD8
:08053800F8BC08BC9E467047A8
:04054000BD010008F1
:040544009901000811
:040000050800048D5E
:00000001FF
